{
  "contractName": "register",
  "abi": [
    {
      "inputs": [
        {
          "internalType": "string",
          "name": "name",
          "type": "string"
        },
        {
          "internalType": "string",
          "name": "adhar",
          "type": "string"
        },
        {
          "internalType": "string",
          "name": "mobile",
          "type": "string"
        },
        {
          "internalType": "string",
          "name": "dob",
          "type": "string"
        },
        {
          "internalType": "string",
          "name": "state",
          "type": "string"
        },
        {
          "internalType": "string",
          "name": "district",
          "type": "string"
        },
        {
          "internalType": "string",
          "name": "pincode",
          "type": "string"
        }
      ],
      "name": "addUser",
      "outputs": [],
      "stateMutability": "nonpayable",
      "type": "function"
    },
    {
      "inputs": [
        {
          "internalType": "string",
          "name": "adhar",
          "type": "string"
        },
        {
          "internalType": "uint256",
          "name": "status",
          "type": "uint256"
        }
      ],
      "name": "validateUser",
      "outputs": [],
      "stateMutability": "nonpayable",
      "type": "function"
    },
    {
      "inputs": [],
      "name": "viewUsers",
      "outputs": [
        {
          "internalType": "string[]",
          "name": "",
          "type": "string[]"
        },
        {
          "internalType": "string[]",
          "name": "",
          "type": "string[]"
        },
        {
          "internalType": "string[]",
          "name": "",
          "type": "string[]"
        },
        {
          "internalType": "string[]",
          "name": "",
          "type": "string[]"
        },
        {
          "internalType": "string[]",
          "name": "",
          "type": "string[]"
        },
        {
          "internalType": "string[]",
          "name": "",
          "type": "string[]"
        },
        {
          "internalType": "string[]",
          "name": "",
          "type": "string[]"
        },
        {
          "internalType": "uint256[]",
          "name": "",
          "type": "uint256[]"
        }
      ],
      "stateMutability": "view",
      "type": "function",
      "constant": true
    }
  ],
  "bytecode": "0x608060405234801561001057600080fd5b5061146d806100206000396000f3fe608060405234801561001057600080fd5b50600436106100415760003560e01c806314ebdb791461004657806388ee9b291461006b5780638945954714610087575b600080fd5b61004e6100a3565b604051610062989796959493929190610bd9565b60405180910390f35b61008560048036038101906100809190610e04565b6106f0565b005b6100a1600480360381019061009c9190610e60565b6107ac565b005b6060806060806060806060806000600160026003600460056006600787805480602002602001604051908101604052809291908181526020016000905b8282101561018c5783829060005260206000200180546100ff90610ff5565b80601f016020809104026020016040519081016040528092919081815260200182805461012b90610ff5565b80156101785780601f1061014d57610100808354040283529160200191610178565b820191906000526020600020905b81548152906001019060200180831161015b57829003601f168201915b5050505050815260200190600101906100e0565b50505050975086805480602002602001604051908101604052809291908181526020016000905b8282101561025f5783829060005260206000200180546101d290610ff5565b80601f01602080910402602001604051908101604052809291908181526020018280546101fe90610ff5565b801561024b5780601f106102205761010080835404028352916020019161024b565b820191906000526020600020905b81548152906001019060200180831161022e57829003601f168201915b5050505050815260200190600101906101b3565b50505050965085805480602002602001604051908101604052809291908181526020016000905b828210156103325783829060005260206000200180546102a590610ff5565b80601f01602080910402602001604051908101604052809291908181526020018280546102d190610ff5565b801561031e5780601f106102f35761010080835404028352916020019161031e565b820191906000526020600020905b81548152906001019060200180831161030157829003601f168201915b505050505081526020019060010190610286565b50505050955084805480602002602001604051908101604052809291908181526020016000905b8282101561040557838290600052602060002001805461037890610ff5565b80601f01602080910402602001604051908101604052809291908181526020018280546103a490610ff5565b80156103f15780601f106103c6576101008083540402835291602001916103f1565b820191906000526020600020905b8154815290600101906020018083116103d457829003601f168201915b505050505081526020019060010190610359565b50505050945083805480602002602001604051908101604052809291908181526020016000905b828210156104d857838290600052602060002001805461044b90610ff5565b80601f016020809104026020016040519081016040528092919081815260200182805461047790610ff5565b80156104c45780601f10610499576101008083540402835291602001916104c4565b820191906000526020600020905b8154815290600101906020018083116104a757829003601f168201915b50505050508152602001906001019061042c565b50505050935082805480602002602001604051908101604052809291908181526020016000905b828210156105ab57838290600052602060002001805461051e90610ff5565b80601f016020809104026020016040519081016040528092919081815260200182805461054a90610ff5565b80156105975780601f1061056c57610100808354040283529160200191610597565b820191906000526020600020905b81548152906001019060200180831161057a57829003601f168201915b5050505050815260200190600101906104ff565b50505050925081805480602002602001604051908101604052809291908181526020016000905b8282101561067e5783829060005260206000200180546105f190610ff5565b80601f016020809104026020016040519081016040528092919081815260200182805461061d90610ff5565b801561066a5780601f1061063f5761010080835404028352916020019161066a565b820191906000526020600020905b81548152906001019060200180831161064d57829003601f168201915b5050505050815260200190600101906105d2565b505050509150808054806020026020016040519081016040528092919081815260200182805480156106cf57602002820191906000526020600020905b8154815260200190600101908083116106bb575b50505050509050975097509750975097509750975097509091929394959697565b60005b6001805490508110156107a7576001818154811061071457610713611026565b5b9060005260206000200160405160200161072e91906110f8565b60405160208183030381529060405280519060200120836040516020016107559190611140565b604051602081830303815290604052805190602001200361079457816007828154811061078557610784611026565b5b90600052602060002001819055505b808061079f90611186565b9150506106f3565b505050565b6008866040516107bc9190611140565b908152602001604051809103902060009054906101000a900460ff16156107e257600080fd5b6000879080600181540180825580915050600190039060005260206000200160009091909190915090816108169190611365565b5060018690806001815401808255809150506001900390600052602060002001600090919091909150908161084b9190611365565b506002859080600181540180825580915050600190039060005260206000200160009091909190915090816108809190611365565b506003849080600181540180825580915050600190039060005260206000200160009091909190915090816108b59190611365565b506004839080600181540180825580915050600190039060005260206000200160009091909190915090816108ea9190611365565b5060058290806001815401808255809150506001900390600052602060002001600090919091909150908161091f9190611365565b506006819080600181540180825580915050600190039060005260206000200160009091909190915090816109549190611365565b5060076000908060018154018082558091505060019003906000526020600020016000909190919091505560016008876040516109919190611140565b908152602001604051809103902060006101000a81548160ff02191690831515021790555050505050505050565b600081519050919050565b600082825260208201905092915050565b6000819050602082019050919050565b600081519050919050565b600082825260208201905092915050565b60005b83811015610a25578082015181840152602081019050610a0a565b60008484015250505050565b6000601f19601f8301169050919050565b6000610a4d826109eb565b610a5781856109f6565b9350610a67818560208601610a07565b610a7081610a31565b840191505092915050565b6000610a878383610a42565b905092915050565b6000602082019050919050565b6000610aa7826109bf565b610ab181856109ca565b935083602082028501610ac3856109db565b8060005b85811015610aff5784840389528151610ae08582610a7b565b9450610aeb83610a8f565b925060208a01995050600181019050610ac7565b50829750879550505050505092915050565b600081519050919050565b600082825260208201905092915050565b6000819050602082019050919050565b6000819050919050565b610b5081610b3d565b82525050565b6000610b628383610b47565b60208301905092915050565b6000602082019050919050565b6000610b8682610b11565b610b908185610b1c565b9350610b9b83610b2d565b8060005b83811015610bcc578151610bb38882610b56565b9750610bbe83610b6e565b925050600181019050610b9f565b5085935050505092915050565b6000610100820190508181036000830152610bf4818b610a9c565b90508181036020830152610c08818a610a9c565b90508181036040830152610c1c8189610a9c565b90508181036060830152610c308188610a9c565b90508181036080830152610c448187610a9c565b905081810360a0830152610c588186610a9c565b905081810360c0830152610c6c8185610a9c565b905081810360e0830152610c808184610b7b565b90509998505050505050505050565b6000604051905090565b600080fd5b600080fd5b600080fd5b600080fd5b7f4e487b7100000000000000000000000000000000000000000000000000000000600052604160045260246000fd5b610ce582610a31565b810181811067ffffffffffffffff82111715610d0457610d03610cad565b5b80604052505050565b6000610d17610c8f565b9050610d238282610cdc565b919050565b600067ffffffffffffffff821115610d4357610d42610cad565b5b610d4c82610a31565b9050602081019050919050565b82818337600083830152505050565b6000610d7b610d7684610d28565b610d0d565b905082815260208101848484011115610d9757610d96610ca8565b5b610da2848285610d59565b509392505050565b600082601f830112610dbf57610dbe610ca3565b5b8135610dcf848260208601610d68565b91505092915050565b610de181610b3d565b8114610dec57600080fd5b50565b600081359050610dfe81610dd8565b92915050565b60008060408385031215610e1b57610e1a610c99565b5b600083013567ffffffffffffffff811115610e3957610e38610c9e565b5b610e4585828601610daa565b9250506020610e5685828601610def565b9150509250929050565b600080600080600080600060e0888a031215610e7f57610e7e610c99565b5b600088013567ffffffffffffffff811115610e9d57610e9c610c9e565b5b610ea98a828b01610daa565b975050602088013567ffffffffffffffff811115610eca57610ec9610c9e565b5b610ed68a828b01610daa565b965050604088013567ffffffffffffffff811115610ef757610ef6610c9e565b5b610f038a828b01610daa565b955050606088013567ffffffffffffffff811115610f2457610f23610c9e565b5b610f308a828b01610daa565b945050608088013567ffffffffffffffff811115610f5157610f50610c9e565b5b610f5d8a828b01610daa565b93505060a088013567ffffffffffffffff811115610f7e57610f7d610c9e565b5b610f8a8a828b01610daa565b92505060c088013567ffffffffffffffff811115610fab57610faa610c9e565b5b610fb78a828b01610daa565b91505092959891949750929550565b7f4e487b7100000000000000000000000000000000000000000000000000000000600052602260045260246000fd5b6000600282049050600182168061100d57607f821691505b6020821081036110205761101f610fc6565b5b50919050565b7f4e487b7100000000000000000000000000000000000000000000000000000000600052603260045260246000fd5b600081905092915050565b60008190508160005260206000209050919050565b6000815461108281610ff5565b61108c8186611055565b945060018216600081146110a757600181146110bc576110ef565b60ff19831686528115158202860193506110ef565b6110c585611060565b60005b838110156110e7578154818901526001820191506020810190506110c8565b838801955050505b50505092915050565b60006111048284611075565b915081905092915050565b600061111a826109eb565b6111248185611055565b9350611134818560208601610a07565b80840191505092915050565b600061114c828461110f565b915081905092915050565b7f4e487b7100000000000000000000000000000000000000000000000000000000600052601160045260246000fd5b600061119182610b3d565b91507fffffffffffffffffffffffffffffffffffffffffffffffffffffffffffffffff82036111c3576111c2611157565b5b600182019050919050565b60006020601f8301049050919050565b600082821b905092915050565b60006008830261121b7fffffffffffffffffffffffffffffffffffffffffffffffffffffffffffffffff826111de565b61122586836111de565b95508019841693508086168417925050509392505050565b6000819050919050565b600061126261125d61125884610b3d565b61123d565b610b3d565b9050919050565b6000819050919050565b61127c83611247565b61129061128882611269565b8484546111eb565b825550505050565b600090565b6112a5611298565b6112b0818484611273565b505050565b5b818110156112d4576112c960008261129d565b6001810190506112b6565b5050565b601f821115611319576112ea81611060565b6112f3846111ce565b81016020851015611302578190505b61131661130e856111ce565b8301826112b5565b50505b505050565b600082821c905092915050565b600061133c6000198460080261131e565b1980831691505092915050565b6000611355838361132b565b9150826002028217905092915050565b61136e826109eb565b67ffffffffffffffff81111561138757611386610cad565b5b6113918254610ff5565b61139c8282856112d8565b600060209050601f8311600181146113cf57600084156113bd578287015190505b6113c78582611349565b86555061142f565b601f1984166113dd86611060565b60005b82811015611405578489015182556001820191506020850194506020810190506113e0565b86831015611422578489015161141e601f89168261132b565b8355505b6001600288020188555050505b50505050505056fea2646970667358221220fad5f708649d130abb0c9d816930d048628de46d63042e55cf9d3b703b04ad6464736f6c63430008130033",
  "immutableReferences": {},
  "source": "// SPDX-License-Identifier: MIT\r\npragma solidity >=0.4.22 <0.9.0;\r\n\r\ncontract register {\r\n  string[] _names;\r\n  string[] _adhars;\r\n  string[] _mobiles;\r\n  string[] _dobs;\r\n  string[] _states;\r\n  string[] _districts;\r\n  string[] _pincodes;\r\n  uint[] _statuses;\r\n\r\n  mapping(string=>bool) _users;\r\n\r\n  function addUser(string memory name,string memory adhar,string memory mobile,string memory dob,string memory state,string memory district,string memory pincode) public {\r\n    require(!_users[adhar]);\r\n    _names.push(name);\r\n    _adhars.push(adhar);\r\n    _mobiles.push(mobile);\r\n    _dobs.push(dob);\r\n    _states.push(state);\r\n    _districts.push(district);\r\n    _pincodes.push(pincode);\r\n    _statuses.push(0);\r\n    _users[adhar]=true;\r\n  }\r\n\r\n  function validateUser(string memory adhar,uint status) public {\r\n    uint i;\r\n\r\n    for(i=0;i<_adhars.length;i++){\r\n      if(keccak256(abi.encodePacked(adhar)) == keccak256(abi.encodePacked(_adhars[i]))){\r\n        _statuses[i]=status;\r\n      }\r\n    }\r\n  }\r\n\r\n  function viewUsers() public view returns(string[] memory,string[] memory,string[] memory,string[] memory,string[] memory,string[] memory,string[] memory,uint[] memory) {\r\n    return(_names,_adhars,_mobiles,_dobs,_states,_districts,_pincodes,_statuses);\r\n  }\r\n}\r\n",
  "sourcePath": "/Users/ms/Downloads/Major Project/Major Project/contracts/register.sol",
  "compiler": {
    "name": "solc",
    "version": "0.8.19+commit.7dd6d404.Emscripten.clang"
  },
  "schemaVersion": "3.4.16",
  "updatedAt": "2024-03-07T14:15:51.328Z",
  "networkType": "ethereum",
  "devdoc": {
    "kind": "dev",
    "methods": {},
    "version": 1
  },
  "userdoc": {
    "kind": "user",
    "methods": {},
    "version": 1
  }
}